:020000040800F2
:1000000000280020BD1D0008911B0008971B000858
:100010009D1B0008A31B0008A91B0008000000008E
:10002000000000000000000000000000AF1B0008FE
:10003000BB1B000800000000C71B0008D51B000800
:10004000051E0008051E0008051E0008051E000804
:10005000051E0008051E0008051E0008051E0008F4
:10006000051E0008051E0008051E0008051E0008E4
:10007000051E0008051E0008051E0008091C0008D2
:10008000051E0008051E0008051E0008051E0008C4
:10009000051E0008051E0008051E0008051E0008B4
:1000A000051E0008051E0008051E0008051E0008A4
:1000B000051E0008051E000800000000051E0008BF
:1000C000051E00080000000000000000051E0008DA
:1000D000000000001D1C0008051E000800000000B4
:1000E000051E0008051E0008051E0008000000008F
:1000F0000000000000000000000000000000000000
:0C01000000000000000000005FF808F1A3
:1001100010B5054C237833B9044B13B10448AFF341
:1001200000800123237010BDE001002000000000CA
:100130007878000808B5034B1BB103490348AFF3B7
:10014000008008BD00000000E4010020787800086D
:1001500010F8012B11F8013B012A28BF9A42F7D071
:10016000D01A7047034613F8012B002AFBD1181A46
:100170000138704781F0004102E000BF83F0004386
:1001800030B54FEA41044FEA430594EA050F08BF32
:1001900090EA020F1FBF54EA000C55EA020C7FEAF6
:1001A000645C7FEA655C00F0E2804FEA5454D4EB73
:1001B0005555B8BF6D420CDD2C4480EA020281EA3D
:1001C000030382EA000083EA010180EA020281EA75
:1001D0000303362D88BF30BD11F0004F4FEA0131C7
:1001E0004FF4801C4CEA113102D0404261EB4101D6
:1001F00013F0004F4FEA03334CEA133302D052425C
:1002000063EB430394EA050F00F0A780A4F1010417
:10021000D5F1200E0DDB02FA0EFC22FA05F2801851
:1002200041F1000103FA0EF2801843FA05F3594137
:100230000EE0A5F120050EF1200E012A03FA0EFCB6
:1002400028BF4CF0020C43FA05F3C01851EBE371E0
:1002500001F0004507D54FF0000EDCF1000C7EEBFD
:1002600000006EEB0101B1F5801F1BD3B1F5001F3B
:100270000CD349085FEA30004FEA3C0C04F101045A
:100280004FEA445212F5800F80F09A80BCF1004F83
:1002900008BF5FEA500C50F1000041EB045141EA05
:1002A000050130BD5FEA4C0C404141EB0101013CCE
:1002B00028BFB1F5801FE9D291F0000F04BF0146BD
:1002C0000020B1FA81F308BF2033A3F10B03B3F18F
:1002D00020020CDA0C3208DD02F1140CC2F10C021F
:1002E00001FA0CF021FA02F10CE002F11402D8BF7D
:1002F000C2F1200C01FA02F120FA0CFCDCBF41EA49
:100300000C019040E41AA2BF01EB0451294330BD17
:100310006FEA04041F3C1CDA0C340EDC04F11404F4
:10032000C4F1200220FA04F001FA02F340EA0300CB
:1003300021FA04F345EA030130BDC4F10C04C4F111
:10034000200220FA02F001FA04F340EA03002946F1
:1003500030BD21FA04F0294630BD94F0000F83F43B
:10036000801306BF81F480110134013D4EE77FEA1E
:10037000645C18BF7FEA655C29D094EA050F08BF6A
:1003800090EA020F05D054EA000C04BF194610464B
:1003900030BD91EA030F1EBF0021002030BD5FEA8F
:1003A000545C05D14000494128BF41F0004130BDB7
:1003B00014F580043CBF01F5801130BD01F000450B
:1003C00045F0FE4141F470014FF0000030BD7FEA7E
:1003D000645C1ABF194610467FEA655C1CBF0B4679
:1003E000024650EA013406BF52EA033591EA030F90
:1003F00041F4002130BD00BF90F0000F04BF002188
:10040000704730B54FF4806404F132044FF00005BA
:100410004FF0000150E700BF90F0000F04BF002133
:10042000704730B54FF4806404F1320410F0004599
:1004300048BF40424FF000013EE700BF42004FEA94
:10044000E2014FEA31014FEA02701FBF12F07F4311
:1004500093F07F4F81F06051704732F07F4208BFC8
:10046000704793F07F4F04BF41F40021704730B5CF
:100470004FF4607401F0004521F000411CE700BF1B
:1004800050EA010208BF704730B54FF000050AE09E
:1004900050EA010208BF704730B511F0004502D59F
:1004A000404261EB41014FF4806404F132045FEAA1
:1004B000915C3FF4D8AE4FF003025FEADC0C18BF4A
:1004C00003325FEADC0C18BF033202EBDC02C2F13C
:1004D000200300FA03FC20FA02F001FA03FE40EACE
:1004E0000E0021FA02F11444BDE600BF70B54FF0D2
:1004F000FF0C4CF4E06C1CEA11541DBF1CEA1355B0
:1005000094EA0C0F95EA0C0F00F0DEF82C4481EA17
:10051000030621EA4C5123EA4C5350EA013518BF37
:1005200052EA033541F4801143F4801338D0A0FB24
:1005300002CE4FF00005E1FB02E506F00042E0FBD1
:1005400003E54FF00006E1FB03569CF0000F18BFD7
:100550004EF0010EA4F1FF04B6F5007F64F540747F
:1005600004D25FEA4E0E6D4146EB060642EAC62112
:1005700041EA55514FEAC52040EA5E504FEACE2E7F
:10058000B4F1FD0C88BFBCF5E06F1ED8BEF1004F82
:1005900008BF5FEA500E50F1000041EB045170BDFE
:1005A00006F0004646EA010140EA020081EA030142
:1005B000B4EB5C04C2BFD4EB0C0541EA045170BD3E
:1005C00041F480114FF0000E013C00F3AB8014F1B8
:1005D000360FDEBF002001F0004170BDC4F1000401
:1005E000203C35DA0C341BDC04F11404C4F1200582
:1005F00000FA05F320FA04F001FA05F240EA0200DD
:1006000001F0004221F0004110EBD37021FA04F612
:1006100042EB06015EEA430E08BF20EAD37070BDCC
:10062000C4F10C04C4F1200500FA04F320FA05F02B
:1006300001FA04F240EA020001F0004110EBD3702D
:1006400041F100015EEA430E08BF20EAD37070BD9D
:10065000C4F1200500FA05F24EEA020E20FA04F376
:1006600001FA05F243EA020321FA04F001F0004125
:1006700021FA04F220EA020000EBD3705EEA430E96
:1006800008BF20EAD37070BD94F0000F0FD101F0C5
:100690000046400041EB010111F4801F08BF013CFE
:1006A000F7D041EA060195F0000F18BF704703F03C
:1006B0000046520043EB030313F4801F08BF013DC3
:1006C000F7D043EA0603704794EA0C0F0CEA13557F
:1006D00018BF95EA0C0F0CD050EA410618BF52EA39
:1006E0004306D1D181EA030101F000414FF000003F
:1006F00070BD50EA410606BF1046194652EA43064D
:1007000019D094EA0C0F02D150EA013613D195EAC0
:100710000C0F05D152EA03361CBF104619460AD108
:1007200081EA030101F0004141F0FE4141F4700112
:100730004FF0000070BD41F0FE4141F4780170BD02
:1007400070B54FF0FF0C4CF4E06C1CEA11541DBF67
:100750001CEA135594EA0C0F95EA0C0F00F0A7F869
:10076000A4EB050481EA030E52EA03354FEA013196
:1007700000F088804FEA03334FF0805545EA1313A9
:1007800043EA12634FEA022245EA111545EA106571
:100790004FEA00260EF000419D4208BF964244F108
:1007A000FD0404F5407402D25B084FEA3202B61A27
:1007B00065EB03055B084FEA32024FF480104FF4FB
:1007C000002CB6EB020E75EB030E22BFB61A75466F
:1007D00040EA0C005B084FEA3202B6EB020E75EB02
:1007E000030E22BFB61A754640EA5C005B084FEA6A
:1007F0003202B6EB020E75EB030E22BFB61A754637
:1008000040EA9C005B084FEA3202B6EB020E75EB41
:10081000030E22BFB61A754640EADC0055EA060E02
:1008200018D04FEA051545EA16754FEA06164FEA45
:10083000C30343EA52734FEAC2025FEA1C1CC0D1F1
:1008400011F4801F0BD141EA00014FF000004FF07E
:10085000004CB6E711F4801F04BF01430020B4F13F
:10086000FD0C88BFBCF5E06F3FF6AFAEB5EB030CF7
:1008700004BFB6EB020C5FEA500C50F1000041EBF4
:10088000045170BD0EF0004E4EEA113114EB5C04C1
:10089000C2BFD4EB0C0541EA045170BD41F4801194
:1008A0004FF0000E013C90E645EA060E8DE60CEA9C
:1008B000135594EA0C0F08BF95EA0C0F3FF43BAFB9
:1008C00094EA0C0F0AD150EA01347FF434AF95EA70
:1008D0000C0F7FF425AF104619462CE795EA0C0F54
:1008E00006D152EA03353FF4FDAE1046194622E721
:1008F00050EA410618BF52EA43067FF4C5AE50EAFB
:1009000041047FF40DAF52EA43057FF4EBAE12E7EA
:100910004FF0FF3C06E000BF4FF0010C02E000BFCB
:100920004FF0010C4DF804CD4FEA410C7FEA6C5CAE
:100930004FEA430C18BF7FEA6C5C1BD001B050EA51
:10094000410C0CBF52EA430C91EA030F02BF90EA3C
:10095000020F0020704710F1000F91EA030F58BFFB
:10096000994208BF90422CBFD8176FEAE37040F05D
:10097000010070474FEA410C7FEA6C5C02D150EAFB
:10098000013C07D14FEA430C7FEA6C5CD6D152EAB6
:10099000033CD3D05DF8040B704700BF844610467B
:1009A00062468C461946634600E000BF01B5FFF77A
:1009B000B7FF002848BF10F1000F01BD4DF808ED4A
:1009C000FFF7F4FF0CBF012000205DF808FB00BF1B
:1009D0004DF808EDFFF7EAFF34BF012000205DF875
:1009E00008FB00BF4DF808EDFFF7E0FF94BF0120C2
:1009F00000205DF808FB00BF4DF808EDFFF7CEFFC3
:100A000094BF012000205DF808FB00BF4DF808ED01
:100A1000FFF7C4FF34BF012000205DF808FB00BFD2
:100A20004FEA410C7FEA6C5C02D150EA013C0AD1EA
:100A30004FEA430C7FEA6C5C02D152EA033C02D1DC
:100A40004FF0000070474FF0010070474FEA41023D
:100A500012F5001215D211D56FF47873B3EB625210
:100A600012D94FEAC12343F0004343EA505311F037
:100A7000004F23FA02F018BF404270474FF00000C9
:100A8000704750EA013005D111F0004008BF6FF007
:100A9000004070474FF00000704700BF4FEA41022E
:100AA000B2F1E04324BFB3F5001CDCF1FE5C0DD9CC
:100AB00001F0004C4FEAC0024CEA5070B2F1004F16
:100AC00040EB830008BF20F00100704711F0804F19
:100AD00021D113F13872BCBF01F00040704741F4DE
:100AE00080114FEA5252C2F11802C2F1200C10FAE2
:100AF0000CF320FA02F018BF40F001004FEAC123C6
:100B00004FEAD32303FA0CFC40EA0C0023FA02F369
:100B10004FEA4303CCE77FEA625307D150EA01333F
:100B20001EBF4FF0FE4040F44000704701F000400F
:100B300040F0FE4040F40000704700BF80F00040ED
:100B400002E000BF81F0004142001FBF5FEA4103A5
:100B500092EA030F7FEA226C7FEA236C6AD04FEAA5
:100B60001262D2EB1363C1BFD218414048404140EA
:100B7000B8BF5B42192B88BF704710F0004F40F49C
:100B8000000020F07F4018BF404211F0004F41F4B8
:100B9000000121F07F4118BF494292EA030F3FD084
:100BA000A2F1010241FA03FC10EB0C00C3F1200397
:100BB00001FA03F100F0004302D5494260EB400026
:100BC000B0F5000F13D3B0F1807F06D340084FEA91
:100BD000310102F10102FE2A51D2B1F1004F40EB86
:100BE000C25008BF20F0010040EA030070474900EE
:100BF00040EB0000013A28BFB0F5000FEDD2B0FA8B
:100C000080FCACF1080CB2EB0C0200FA0CF0AABFAD
:100C100000EBC25052421843BCBFD040184370474B
:100C200092F0000F81F4000106BF80F40000013251
:100C3000013BB5E74FEA41037FEA226C18BF7FEA28
:100C4000236C21D092EA030F04D092F0000F08BF6A
:100C50000846704790EA010F1CBF0020704712F051
:100C60007F4F04D1400028BF40F00040704712F190
:100C700000723CBF00F50000704700F0004343F0F5
:100C8000FE4040F4000070477FEA226216BF08462B
:100C90007FEA23630146420206BF5FEA412390EAEE
:100CA000010F40F4800070474FF0000304E000BFE4
:100CB00010F0004348BF40425FEA000C08BF704795
:100CC00043F0964301464FF000001CE050EA010259
:100CD00008BF70474FF000030AE000BF50EA01026E
:100CE00008BF704711F0004302D5404261EB41015B
:100CF0005FEA010C02BF84460146002043F0B64380
:100D000008BFA3F18053A3F50003BCFA8CF2083AA4
:100D1000A3EBC25310DB01FA02FC634400FA02FCAD
:100D2000C2F12002BCF1004F20FA02F243EB0200B4
:100D300008BF20F00100704702F1200201FA02FC16
:100D4000C2F1200250EA4C0021FA02F243EB020009
:100D500008BF20EADC7070474FF0FF3C06E000BFA0
:100D60004FF0010C02E000BF4FF0010C4DF804CD34
:100D70004FEA40024FEA41037FEA226C18BF7FEA44
:100D8000236C11D001B052EA530C18BF90EA010F46
:100D900058BFB2EB030088BFC81738BF6FEAE170D5
:100DA00018BF40F0010070477FEA226C02D15FEA71
:100DB000402C05D17FEA236CE4D15FEA412CE1D0DD
:100DC0005DF8040B704700BF844608466146FFE7A4
:100DD0000FB5FFF7C9FF002848BF10F1000F0FBD86
:100DE0004DF808EDFFF7F4FF0CBF012000205DF87F
:100DF00008FB00BF4DF808EDFFF7EAFF34BF012004
:100E000000205DF808FB00BF4DF808EDFFF7E0FF9C
:100E100094BF012000205DF808FB00BF4DF808EDED
:100E2000FFF7D2FF94BF012000205DF808FB00BF50
:100E30004DF808EDFFF7C8FF34BF012000205DF832
:100E400008FB00BF53B94AB9002908BF00281CBFDE
:100E50004FF0FF314FF0FF3000F076B9ADF1080CE4
:100E60006DE904CE00F006F8DDF804E0DDE90223C8
:100E700004B070472DE9F047089E0D4604468846A9
:100E8000002B4DD18A42944668D9B2FA82F252B10F
:100E900001FA02F3C2F1200120FA01F10CFA02FC7E
:100EA00041EA030894404FEA1C41B8FBF1F71FFAEE
:100EB0008CFE01FB178807FB0EF0230C43EA084366
:100EC00098420AD91CEB030307F1FF3580F01E811D
:100ED000984240F21B81023F63441B1AB3FBF1F0BE
:100EE00001FB103300FB0EFEA4B244EA0344A64506
:100EF0000AD91CEB040400F1FF3380F00981A645F8
:100F000040F20681644402380021A4EB0E0440EA5A
:100F100007401EB10023D440C6E90043BDE8F08776
:100F20008B4208D9002E00F0EE800021C6E90005B2
:100F30000846BDE8F087B3FA83F100294AD1AB42F5
:100F400002D3824200F2FC80841A65EB0303012085
:100F50009846002EE2D0C6E90048DFE702B9FFDE7E
:100F6000B2FA82F2002A40F09180A1EB0C0001213C
:100F70004FEA1C471FFA8CFEB0FBF7F307FB130088
:100F8000250C45EA00450EFB03F0A84208D91CEBEE
:100F9000050503F1FF3802D2A84200F2CE80434695
:100FA0002D1AB5FBF7F007FB10550EFB00FEA4B29F
:100FB00044EA0544A64508D91CEB040400F1FF35BA
:100FC00002D2A64500F2B6802846A4EB0E0440EA01
:100FD00003409EE7C1F120078B4022FA07FC4CEA50
:100FE000030C25FA07FA4FEA1C49BAFBF9F820FA74
:100FF00007F309FB18AA8D401FFA8CFE1D4300FA67
:1010000001F308FB0EF02C0C44EA0A44A04202FA59
:1010100001F20BD91CEB040408F1FF3A80F0888040
:10102000A04240F28580A8F102086444241AB4FB6F
:10103000F9F009FB104400FB0EFEADB245EA044492
:10104000A64508D91CEB040400F1FF356CD2A64577
:101050006AD90238644440EA0840A0FB0295A4EB38
:101060000E04AC42C846AE4656D353D0002E69D0CB
:10107000B3EB080264EB0E0422FA01F304FA07F75B
:101080001F43CC40C6E90074002147E70CFA02FC7C
:10109000C2F1200125FA01F34FEA1C4720FA01F1C1
:1010A00095400D43B3FBF7F107FB11331FFA8CFE9C
:1010B000280C40EA034001FB0EF3834204FA02F4D9
:1010C00008D91CEB000001F1FF382FD283422DD943
:1010D00002396044C01AB0FBF7F307FB1300ADB24E
:1010E00045EA004503FB0EF0A84208D91CEB0505B4
:1010F00003F1FF3816D2A84214D9023B6544281ADE
:1011000043EA014138E73146304607E72F46E4E637
:101110001846F9E64B45A9D2B9EB020865EB0C0E6F
:101120000138A3E74346EAE7284694E74146D1E77A
:10113000D0467BE76444023847E7023B65442FE72B
:10114000084606E73146E9E6704700BF80B584B03F
:1011500000AF3B1D00221A605A609A6000237B603A
:101160000123BB600423FB603B1D1946054801F0C9
:1011700071F90346002B01D000F028FC00BF1037A6
:10118000BD4680BDFC01002080B584B000AF3B1D92
:1011900000221A605A609A6001237B600123BB60C1
:1011A0000523FB603B1D1946054801F053F9034632
:1011B000002B01D000F00AFC00BF1037BD4680BDF7
:1011C000FC01002080B584B000AF3B1D00221A60F6
:1011D0005A609A6002237B600123BB600623FB6098
:1011E0003B1D1946054801F035F90346002B01D097
:1011F00000F0ECFB00BF1037BD4680BDFC010020B5
:1012000080B582B000AF0023FB800B4800F036FFB2
:10121000C821094801F00CF80346002B04D1064808
:1012200001F00CF90346FB80034800F0D5FFFB8872
:1012300018460837BD4680BDFC01002000000000B4
:101240002DE9B04386B000AF78604FF000024FF058
:101250000003C7E904230023FB7313E0FB7B5B005F
:101260007A6813441B889BB200221C461546D7E9B6
:10127000042312EB040843EB0509C7E90489FB7B4F
:101280000133FB73FB7B632BE8D9D7E904014FF0F3
:1012900064024FF00003FFF7D5FD02460B46C7E995
:1012A0000423D7E90401FFF7EBF81BA3D3E90023DC
:1012B000FFF746FA02460B4610461946FFF7EEFBCB
:1012C00003461846FFF7BAF815A3D3E90023FFF742
:1012D0000DF902460B461046194602460B46FEF72C
:1012E0004FFF02460B4614461D460F4B1B6818461F
:1012F000FFF7A4F802460B4620462946FFF7F6F80A
:1013000002460B4610461946FFF7C8FB034618462F
:101310001837BD46BDE8B0830000000000FEAF40B6
:101320000C022B8716D908400000002080B582B03F
:1013300000AF78600B497868FFF704FC0346184655
:10134000FFF77CF84FF03332074BFFF7F9F902460D
:101350000B4610461946FFF7A1FB0346184608370F
:10136000BD4680BD000020403333B33F0000000085
:1013700080B584B000AF7860334A7B6892FBF3F3AA
:10138000A3F51C53103B1846FFF746F802460B46E0
:101390001046194606F084F8C7E9020122A3D3E9F2
:1013A0000023D7E90201FFF7A1F802460B461046D9
:1013B0001946D7E90223FFF799F802460B46104673
:1013C00019461BA3D3E90023FEF7DAFE02460B46BB
:1013D00010461946D7E90223FFF788F802460B4664
:1013E0001046194614A3D3E90023FEF7C9FE0246AE
:1013F0000B464FF000001549FFF7A2F902460B46D5
:10140000C7E902230EA3D3E90023D7E90201FEF7BF
:10141000B5FE02460B46C7E90223D7E90223104670
:1014200019461037BD4680BD190D1714EB88773E5D
:10143000C2C3B46FEEAF2E3F90B8DE6EFD7F523F59
:101440006666666666127140F0D870020000F03F72
:1014500080B500AF254B1B78022B2BD0022B43DC31
:10146000002B02D0012B0BD03EE00122102120489E
:1014700001F0C8FE012220211D4801F0C3FE33E027
:10148000002210211A4801F0BDFE01222021184837
:1014900001F0B8FE174B1B68174A12681146184630
:1014A000FFF7BCFC0346002B00D11DE00F4B0022D0
:1014B0001A7019E0012210210D4801F0A3FE00224C
:1014C00020210B4801F09EFE0A4B1B680A4A526815
:1014D00011461846FFF798FC0346002B00D102E0A6
:1014E000024B00221A7000BF00BF80BD58040020CC
:1014F00000080140B80200206C04002080B582B0D2
:1015000000AF0346FB71F91D64230122034802F07A
:101510006EFCFB7918460837BD4680BD2C020020C2
:1015200080B582B000AF786011497868FEF710FE90
:101530000346002B03D10F4B00221A7014E00E4912
:101540007868FEF705FE0346002B03D1094B012204
:101550001A7009E009497868FEF7FAFD0346002B86
:1015600002D1044B02221A7000BF0837BD4680BD6D
:10157000907800085804002098780008A0780008A7
:1015800080B584B000AF78600B467B807B681B68B9
:10159000114A93421CD10A221049114802F0B9FCA9
:1015A000104B1B681A680F4B1B6822F004021A606C
:1015B0007B88FB7306E0FB7B084A0021D154FB7B50
:1015C0000133FB73FB7B092BF5D9044B01229A7283
:1015D00000BF1037BD4680BD003801405C040020CC
:1015E0002C0200207002002080B500AF02F0ECF960
:1015F0000346094AA2FB03239B09184601F0BFF9E1
:10160000042001F0C9F9002200214FF0FF3001F061
:101610008CF900BF80BD00BFD34D6210F0B585B01E
:1016200004AF00F0F1FB00F0CBF800F091F900F00E
:1016300071F900F01DF900F043F90A2251495248AE
:1016400002F067FC514B1B681A68504B1B6822F074
:1016500004021A60FFF7C8FF4D4B4E4A1A604C4B0C
:101660004D4A5A60FFF7AEFD4C4B1B781C46FFF706
:10167000C7FD03461A464A4B23F81420FFF766FDC0
:10168000464B1B781C46FFF7BBFD03461A46454BED
:1016900023F81420414B1B780133DAB23F4B1A7008
:1016A0003E4B1B78642B0AD13C4B00221A703E4BF8
:1016B00001221A703D4B1B781846FFF7C9FE3A4BC2
:1016C0001B78002B1CD03648FFF7BAFD0346384A7A
:1016D00013603448FFF7B4FD03461846FFF726FEB3
:1016E0000346334A5360FFF74FFDFFF789FD03467A
:1016F0001846FFF73DFE02460B462D49C1E902237D
:101700002B4BD3E902014FF000022A4BFFF774F98B
:101710000346002B02D0254B00221A70194B9B7AEE
:10172000002B0AD01748FFF7FBFE164B00229A72D7
:101730001E4B1B781846FFF78BFE1F4B9B78002B28
:1017400090D01A4B1B781E46194B1B681846FEF7A3
:1017500075FE04460D46164B5B681846FEF76EFE96
:10176000134BD3E90223CDE90223CDE90001224640
:101770002B463146114803F0CDFD0F4B00229A70E5
:1017800070E700BF5C0400202C02002070020020E3
:101790006C040020CDCC844033333340B4020020AD
:1017A000C8020020900300205904002058040020A3
:1017B000B80200200080464068040020AC78000891
:1017C00080B594B000AF07F1280328220021184605
:1017D00003F038F907F1140300221A605A609A6086
:1017E000DA601A613B1D00221A605A609A60DA6062
:1017F0000123BB624FF48033FB6200233B63012370
:10180000BB6302237B644FF48033BB640023FB641F
:1018100007F12803184601F00DFD0346002B01D007
:1018200000F0D4F80F237B610223BB610023FB612E
:1018300000233B6200237B6207F11403002118465A
:1018400001F07AFF0346002B01D000F0BFF802231D
:101850007B600023FB603B1D184602F005F9034640
:10186000002B01D000F0B2F800BF5037BD4680BD5C
:1018700080B500AF104B114A1A600F4B4FF48072C5
:101880009A600D4B01221A730B4B00221A750A4BFA
:101890004FF46022DA61084B00225A60064B0122A5
:1018A0001A61054800F012FB0346002B01D000F03E
:1018B0008DF800BF80BD00BFFC0100200024014066
:1018C00080B500AF114B124A1A60104B4FF4E13251
:1018D0005A600E4B00229A600C4B0022DA600B4BD0
:1018E00000221A61094B0C225A61084B00229A61AE
:1018F000064B0022DA61054802F02CFA0346002B61
:1019000001D000F063F800BF80BD00BF2C020020B2
:101910000038014080B582B000AF0C4B5B690B4AC8
:1019200043F001035361094B5B6903F001037B60E2
:101930007B68002200210F2000F0F7FF0F2001F04C
:1019400010F800BF0837BD4680BD00BF0010024040
:1019500080B586B000AF07F1080300221A605A6014
:101960009A60DA60174B9B69164A43F02003936133
:10197000144B9B6903F020037B607B68114B9B69D0
:10198000104A43F0040393610E4B9B6903F0040378
:101990003B603B68002230210B4801F033FC3023D0
:1019A000BB600123FB6000233B6102237B6107F1E5
:1019B00008031946044801F0A9FA00BF1837BD46CC
:1019C00080BD00BF001002400008014080B400AF9D
:1019D00072B600BFFEE7000080B483B000AF0E4BCC
:1019E0009B690D4A43F0010393610B4B9B6903F024
:1019F00001037B607B68084BDB69074A43F0805337
:101A0000D361054BDB6903F080533B603B6800BF4B
:101A10000C37BD4680BC70470010024080B588B0CE
:101A200000AF786007F1100300221A605A609A60D4
:101A3000DA607B681B68144A934221D1134B9B697F
:101A4000124A43F400739361104B9B6903F40073D3
:101A5000FB60FB680D4B9B690C4A43F004039361E8
:101A60000A4B9B6903F00403BB60BB6807233B611F
:101A700003237B6107F110031946054801F046FA7C
:101A800000BF2037BD4680BD002401400010024049
:101A90000008014080B588B000AF786007F11003FE
:101AA00000221A605A609A60DA607B681B68334AC9
:101AB00093425FD1324B9B69314A43F48043936137
:101AC0002F4B9B6903F48043FB60FB682C4B9B69A5
:101AD0002B4A43F004039361294B9B6903F00403F1
:101AE000BB60BB684FF400733B6102237B6103233F
:101AF000FB6107F110031946224801F007FA4FF481
:101B000080633B6100237B610023BB6107F110030D
:101B100019461C4801F0FAF91B4B1C4A1A601A4B73
:101B200000225A60184B00229A60174B8022DA601C
:101B3000154B00221A61144B00225A61124B0022ED
:101B40009A61114B0022DA610F4800F041FF034611
:101B5000002B01D0FFF73AFF7B680B4A9A630A4AD1
:101B60007B68536200220021252000F0DEFE252044
:101B700000F0F7FE00BF2037BD4680BD00380140B1
:101B8000001002400008014070020020580002408E
:101B900080B400AFFEE780B400AFFEE780B400AFD2
:101BA000FEE780B400AFFEE780B400AFFEE780B48C
:101BB00000AF00BFBD4680BC704780B400AF00BF1F
:101BC000BD4680BC704780B400AF00BFBD4680BC3E
:101BD0007047000080B500AF0A4B1B8801339AB2F2
:101BE000084B1A80074B1B88B3F57A7F05D1054B4C
:101BF00001229A70034B00221A8000F04BF900BFBB
:101C000080BD00BF6804002080B500AF024801F02D
:101C100049F800BF80BD00BF7002002080B500AF52
:101C2000024802F0C5F900BF80BD00BF2C020020B1
:101C300080B400AF01231846BD4680BC704780B514
:101C400082B000AF7860396002F0D2FE03461622FF
:101C50001A604FF0FF3318460837BD4680BD80B587
:101C600082B000AF78604FF0FF317868FFF7E7FF90
:101C7000FEE780B586B000AFF860B9607A600023F7
:101C80007B610AE0AFF300800146BB685A1CBA6072
:101C9000CAB21A707B6901337B617A697B689A42A8
:101CA000F0DB7B6818461837BD4680BD80B586B02E
:101CB00000AFF860B9607A6000237B6109E0BB681F
:101CC0005A1CBA601B781846FFF718FC7B69013371
:101CD0007B617A697B689A42F1DB7B68184618372A
:101CE000BD4680BD80B483B000AF78604FF0FF3355
:101CF00018460C37BD4680BC704780B483B000AF37
:101D0000786039603B684FF400525A6000231846EF
:101D10000C37BD4680BC704780B483B000AF78609C
:101D2000012318460C37BD4680BC704780B485B08F
:101D300000AFF860B9607A60002318461437BD46DA
:101D400080BC704780B586B000AF7860144A154BF0
:101D5000D31A7B617B693B61134B1B68002B02D15B
:101D6000114B124A1A60104B1A687B6813443A6987
:101D70009A4207D202F03CFE03460C221A604FF052
:101D8000FF3309E0084B1B68FB60074B1A687B6850
:101D90001344054A1360FB6818461837BD4680BDDA
:101DA000002800200004000074040020900400209B
:101DB00080B400AF00BFBD4680BC70470C480D49E1
:101DC0000D4A002302E0D458C4500433C4188C4296
:101DD000F9D30A4A0A4C002301E013600432A242FC
:101DE000FBD3FFF7E5FF02F009FEFFF717FC704792
:101DF00000000020E0010020E47C0008E001002059
:101E00008C040020FEE7000080B500AF084B1B6883
:101E1000074A43F010031360032000F07BFD0F20FE
:101E200000F008F8FFF7D8FD0023184680BD00BF7A
:101E30000020024080B582B000AF7860124B1A6873
:101E4000124B1B7819464FF47A73B3FBF1F3B2FBD4
:101E5000F3F3184600F093FD0346002B01D0012355
:101E60000EE07B680F2B0AD8002279684FF0FF3014
:101E700000F05BFD064A7B681360002300E001234D
:101E800018460837BD4680BD040000200C00002025
:101E90000800002080B400AF054B1B781A46054BA4
:101EA0001B681344034A136000BFBD4680BC7047E3
:101EB0000C0000207804002080B400AF024B1B68A7
:101EC0001846BD4680BC70477804002080B586B0B7
:101ED00000AF78600023FB7500233B610023BB60EB
:101EE0000023FB607B68002B01D10123BEE07B68EF
:101EF0009B68002B7B689B6A002B09D17B680022C2
:101F0000DA627B68002283F824207868FFF786FD78
:101F1000786800F0F1FB0346FB757B689B6A03F071
:101F20001003002B40F09980FB7D002B40F0958042
:101F30007B689B6A23F4885323F0020343F0020278
:101F40007B689A627B685A687B68DB691A437B68A6
:101F50001B7B5B001343BA681343BB607B689B68C1
:101F6000B3F5807F03D07B689B68012B02D14FF4CF
:101F7000807300E000233A6913433B617B681B7D5B
:101F8000012B19D17B681B7B002B09D17B689B69D6
:101F9000013B5A033B69134343F400633B610BE08D
:101FA0007B689B6A43F020027B689A627B68DB6AED
:101FB00043F001027B68DA627B681B685B6823F48C
:101FC00069417B681B683A690A435A607B681B68F1
:101FD0009A68284B13407A681268B9680B4393607B
:101FE0007B689B68B3F5807F03D07B689B68012B7F
:101FF00004D17B681B69013B1B05FB607B681B6888
:10200000DB6A23F470017B681B68FA680A43DA62B2
:102010007B681B689A68184B1340BA689A420BD1C8
:102020007B680022DA627B689B6A23F0030343F03B
:1020300001027B689A6218E07B689B6A23F01203B6
:1020400043F010027B689A627B68DB6A43F001020E
:102050007B68DA620123FB7507E07B689B6A43F0CB
:1020600010027B689A620123FB75FB7D18461837C6
:10207000BD4680BDFDF7E1FFFE0E1FFF80B584B0B9
:1020800000AF78600023FB737B6893F82430012B4A
:1020900001D1022398E07B68012283F8242078682C
:1020A00000F0D0FA0346FB73FB7B002B40F08780E7
:1020B0007B689B6A23F4407323F0010343F480722E
:1020C0007B689A627B681B68414A934205D1414B09
:1020D0005B6803F47023002B15D17B689B6A23F4A3
:1020E00080127B689A627B681B685B6803F480637C
:1020F000002B26D07B689B6A23F4405343F4805224
:102100007B689A621DE07B689B6A43F480127B685F
:102110009A627B681B682F4A934204D07B681B68D5
:102120002B4A93420DD12B4B5B6803F48063002B49
:1021300007D07B689B6A23F4405343F480527B684A
:102140009A627B689B6A03F48053002B06D07B68FD
:10215000DB6A23F006027B68DA6202E07B68002219
:10216000DA627B68002283F824207B681B686FF0AA
:1021700002021A607B681B689B6803F46023B3F556
:10218000602F13D17B681B68114A934205D1114B14
:102190005B6803F47023002B08D17B681B689A6886
:1021A0007B681B6842F4A0029A600CE07B681B68A5
:1021B0009A687B681B6842F480129A6003E07B682F
:1021C000002283F82420FB7B18461037BD4680BDD3
:1021D000002801400024014080B584B000AF786041
:1021E0000023FB737B6893F82430012B01D1022379
:1021F0001AE07B68012283F82420786800F07CFADA
:102200000346FB73FB7B002B09D17B689B6A23F49D
:10221000885323F0010343F001027B689A627B68D4
:10222000002283F82420FB7B18461037BD4680BD72
:1022300090B587B000AF7860396000237B610023E0
:10224000FB6000233B61FFF737FE78617B681B680A
:102250009B6803F48073002B0BD07B689B6A43F070
:1022600020027B689A627B68002283F82420012385
:10227000D3E07B681B685B6803F48073002B31D16B
:102280007B681B68DB6A03F47003002B2AD121E012
:102290003B68B3F1FF3F1DD03B68002B07D0FFF731
:1022A0000BFE02467B69D31A3A689A4212D27B68C7
:1022B0001B681B6803F00203002B0BD17B689B6A31
:1022C00043F004027B689A627B68002283F8242032
:1022D0000323A2E07B681B681B6803F00203002B4A
:1022E000D6D070E04F4B1C68022001F073FC03460F
:1022F000B4FBF3F27B681B6819694B4B0B40002B56
:1023000018D17B681B68D968484B0B40002B11D152
:102310007B681B681969464B0B40002B08D17B6812
:102320001B68D968434B0B40002B01D1142320E0DC
:1023300029231EE07B681B6819693D4B0B40002B6D
:1023400006D17B681B68D9683A4B0B40002B0DD037
:102350007B681B681969384B0B40002B08D17B68E0
:102360001B68D968344B0B40002B01D1542300E08B
:10237000FC2302FB03F33B6121E03B68B3F1FF3F29
:102380001AD03B68002B07D0FFF796FD02467B6909
:10239000D31A3A689A420FD2FB683A699A420BD92B
:1023A0007B689B6A43F004027B689A627B68002228
:1023B00083F82420032330E0FB680133FB60FB68D3
:1023C0003A699A42D9D87B681B686FF012021A608A
:1023D0007B689B6A43F400727B689A627B681B6827
:1023E0009B6803F46023B3F5602F15D17B681B7BDA
:1023F000002B11D17B689B6A23F480727B689A6200
:102400007B689B6A03F48053002B05D17B689B6A31
:1024100043F001027B689A62002318461C37BD46D0
:1024200090BD00BF0400002024499224244992005A
:1024300092244912922449004992240080B483B026
:1024400000AF78607B681B68DB6C18460C37BD46B4
:1024500080BC704780B485B000AF786039600023DD
:10246000FB730023BB607B6893F82430012B01D100
:102470000223DCE07B68012283F824203B685B6850
:10248000062B1CD87B681B68596B3B685A6813463F
:102490009B001344053B1F2202FA03F3DB43194060
:1024A0003B6818683B685A6813469B001344053B19
:1024B00000FA03F27B681B680A435A633CE03B68FE
:1024C0005B680C2B1CD87B681B68196B3B685A68CF
:1024D00013469B001344233B1F2202FA03F3DB4302
:1024E00019403B6818683B685A6813469B001344C0
:1024F000233B00FA03F27B681B680A431A631BE064
:102500007B681B68D96A3B685A6813469B00134472
:10251000413B1F2202FA03F3DB4319403B68186872
:102520003B685A6813469B001344413B00FA03F290
:102530007B681B680A43DA623B681B68092B1CD95D
:102540007B681B68D9683B681A6813465B001344B4
:102550001E3B072202FA03F3DB4319403B689868ED
:102560003B681A6813465B0013441E3B00FA03F2F3
:102570007B681B680A43DA6019E07B681B6819698D
:102580003B681A6813465B001344072202FA03F300
:10259000DB4319403B6898683B681A6813465B0048
:1025A000134400FA03F27B681B680A431A613B6814
:1025B0001B68102B03D03B681B68112B32D17B6842
:1025C0001B681D4A934225D17B681B689B6803F4F6
:1025D0000003002B26D17B681B689A687B681B6808
:1025E00042F400029A603B681B68102B1AD1134B0F
:1025F0001B68134AA2FB03239A0C13469B00134447
:102600005B00BB6002E0BB68013BBB60BB68002BAA
:10261000F9D107E07B689B6A43F020027B689A62ED
:102620000123FB737B68002283F82420FB7B184680
:102630001437BD4680BC70470024014004000020D0
:1026400083DE1B4380B584B000AF78600023FB605D
:102650000023BB607B681B689B6803F00103012BB0
:1026600040D07B681B689A687B681B6842F0010257
:102670009A601F4B1B681F4AA2FB03239B0CBB6085
:1026800002E0BB68013BBB60BB68002BF9D1FFF7E0
:1026900013FCF8601FE0FFF70FFC0246FB68D31A3B
:1026A000022B18D97B681B689B6803F00103012B80
:1026B00011D07B689B6A43F010027B689A627B684A
:1026C000DB6A43F001027B68DA627B68002283F8F0
:1026D0002420012307E07B681B689B6803F001034B
:1026E000012BD8D1002318461037BD4680BD00BF4E
:1026F0000400002083DE1B4380B584B000AF786007
:102700000023FB607B681B689B6803F00103012BBF
:102710002ED17B681B689A687B681B6822F00102D7
:102720009A60FFF7C9FBF8601BE0FFF7C5FB0246A4
:10273000FB68D31A022B14D97B681B689B6803F0D3
:102740000103012B0DD17B689B6A43F010027B686B
:102750009A627B68DB6A43F001027B68DA620123DC
:1027600007E07B681B689B6803F00103012BDCD04A
:10277000002318461037BD4680BD000080B485B0E8
:1027800000AF78607B6803F00703FB600C4BDB68ED
:10279000BB60BA684FF6FF031340BB60FB681A02C8
:1027A000BB68134343F0BF6343F40033BB60044A88
:1027B000BB68D36000BF1437BD4680BC704700BF04
:1027C00000ED00E080B400AF044BDB681B0A03F0AF
:1027D00007031846BD4680BC704700BF00ED00E00F
:1027E00080B483B000AF0346FB7197F90730002B2C
:1027F0000BDBFB7903F01F02064997F907305B09F1
:10280000012000FA02F241F8232000BF0C37BD4638
:1028100080BC704700E100E080B483B000AF0346A5
:102820003960FB7197F90730002B0ADB3B68DAB29D
:102830000C4997F907301201D2B20B4483F80023F8
:102840000AE03B68DAB20849FB7903F00F03043B66
:102850001201D2B20B441A7600BF0C37BD4680BCC1
:10286000704700BF00E100E000ED00E080B489B0F7
:1028700000AFF860B9607A60FB6803F00703FB61A2
:10288000FB69C3F10703042B28BF0423BB61FB6969
:102890000433062B02D9FB69033B00E000237B6174
:1028A0004FF0FF32BB6902FA03F3DA43BB681A4008
:1028B0007B699A404FF0FF317B6901FA03F3D943FA
:1028C0007B680B40134318462437BD4680BC7047D5
:1028D00080B582B000AF78607B68013BB3F1807F48
:1028E00001D301230FE00A4A7B68013B53600F21AB
:1028F0004FF0FF30FFF790FF054B00229A60044B2A
:1029000007221A60002318460837BD4680BD00BF65
:1029100010E000E080B582B000AF78607868FFF723
:102920002DFF00BF0837BD4680BD80B586B000AF23
:102930000346B9607A60FB7300237B61FFF742FFB7
:1029400078617A68B9687869FFF790FF024697F96D
:102950000F3011461846FFF75FFF00BF1837BD461E
:1029600080BD80B582B000AF0346FB7197F9073098
:102970001846FFF735FF00BF0837BD4680BD80B55C
:1029800082B000AF78607868FFF7A2FF0346184670
:102990000837BD4680BD000080B483B000AF7860CA
:1029A0007B68042B06D1094B1B68084A43F00403DB
:1029B000136005E0054B1B68044A23F00403136011
:1029C00000BF0C37BD4680BC704700BF10E000E080
:1029D00080B485B000AF78600023FB607B68002B7B
:1029E00001D1012343E07B681B681A46224B134444
:1029F000224AA2FB03231B099A007B681A647B68A6
:102A00001F4ADA637B68022283F821207B681B68F7
:102A10001B68FB60FB6823F47F5323F03003FB60EB
:102A20007B685A687B689B681A437B68DB681A433B
:102A30007B681B691A437B685B691A437B689B69E7
:102A40001A437B68DB691343FA681343FB607B68B6
:102A50001B68FA681A607B6800229A637B6801220F
:102A600083F821207B68002283F820200023184669
:102A70001437BD4680BC7047F8FFFDBFCDCCCCCC31
:102A80000000024080B586B000AFF860B9607A609F
:102A90003B600023FB75FB6893F82030012B01D1CC
:102AA00002234AE0FB68012283F82020FB6893F8A8
:102AB0002130012B3AD1FB68022283F82120FB68E8
:102AC00000229A63FB681B681A68FB681B6822F087
:102AD00001021A603B687A68B968F86800F0E8F9A2
:102AE000FB68DB6A002B08D0FB681B681A68FB6870
:102AF0001B6842F00E021A600FE0FB681B681A6840
:102B0000FB681B6822F004021A60FB681B681A68E5
:102B1000FB681B6842F00A021A60FB681B681A68AF
:102B2000FB681B6842F001021A6005E0FB680022A6
:102B300083F820200223FB75FB7D18461837BD461D
:102B400080BD80B485B000AF78600023FB737B68E4
:102B500093F82130022B08D07B6804229A637B68AB
:102B6000002283F82020012320E07B681B681A687C
:102B70007B681B6822F00E021A607B681B681A686B
:102B80007B681B6822F001021A607B681A6C7B6804
:102B9000DB6B012101FA02F25A607B68012283F8A3
:102BA00021207B68002283F82020FB7B1846143705
:102BB000BD4680BC7047000080B584B000AF78602F
:102BC0000023FB737B6893F82130022B05D07B68D0
:102BD00004229A630123FB7351E07B681B681A6827
:102BE0007B681B6822F00E021A607B681B681A68FB
:102BF0007B681B6822F001021A607B681B68224A0E
:102C0000934229D07B681B68204A934222D07B687C
:102C10001B681F4A93421AD07B681B681D4A934267
:102C200012D07B681B681C4A93420AD07B681B68E1
:102C30001A4A934202D14FF480130EE04FF0807392
:102C40000BE04FF4803308E04FF4805305E04FF47D
:102C5000807302E0102300E00123114A53607B6877
:102C6000012283F821207B68002283F820207B68E2
:102C70005B6B002B03D07B685B6B78689847FB7BB2
:102C800018461037BD4680BD080002401C000240B7
:102C90003000024044000240580002406C000240F4
:102CA0000000024080B584B000AF78607B68DB6BC9
:102CB0001B68FB607B681B681B68BB607B681B6CC8
:102CC00004229A40FB681340002B4FD0BB6803F0EE
:102CD0000403002B4AD07B681B681B6803F02003A9
:102CE000002B07D17B681B681A687B681B6822F081
:102CF00004021A607B681B68664A934229D07B688D
:102D00001B68654A934222D07B681B68634A9342E2
:102D10001AD07B681B68624A934212D07B681B689A
:102D2000604A93420AD07B681B685F4A934202D193
:102D30004FF480030EE04FF080630BE04FF48023EC
:102D400008E04FF4804305E04FF4806302E0402345
:102D500000E00423554A53607B68DB6A002B00F0D7
:102D600094807B68DB6A786898478EE07B681B6C90
:102D700002229A40FB681340002B56D0BB6803F038
:102D80000203002B51D07B681B681B6803F02003F3
:102D9000002B0BD17B681B681A687B681B6822F0CC
:102DA0000A021A607B68012283F821207B681B6875
:102DB000384A934229D07B681B68374A934222D015
:102DC0007B681B68354A93421AD07B681B68344A7B
:102DD000934212D07B681B68324A93420AD07B68C8
:102DE0001B68314A934202D14FF400130EE04FF0BA
:102DF00000730BE04FF4003308E04FF4005305E09C
:102E00004FF4007302E0202300E00223274A5360BE
:102E10007B68002283F820207B689B6A002B34D0DB
:102E20007B689B6A786898472FE07B681B6C082258
:102E30009A40FB681340002B28D0BB6803F00803BE
:102E4000002B23D07B681B681A687B681B6822F004
:102E50000E021A607B681A6C7B68DB6B012101FA39
:102E600002F25A607B6801229A637B68012283F830
:102E700021207B68002283F820207B681B6B002BBD
:102E800004D07B681B6B7868984700BF00BF103781
:102E9000BD4680BD080002401C00024030000240D8
:102EA00044000240580002406C0002400000024012
:102EB00080B485B000AFF860B9607A603B60FB68B1
:102EC0001A6CFB68DB6B012101FA02F25A60FB68A5
:102ED0001B683A685A60FB685B68102B08D1FB6876
:102EE0001B687A689A60FB681B68BA68DA6007E05A
:102EF000FB681B68BA689A60FB681B687A68DA60CE
:102F000000BF1437BD4680BC7047000080B48BB052
:102F100000AF7860396000237B6200233B6261E18F
:102F200001227B6A02FA03F3FB613B681B68FA69C2
:102F30001340BB61BA69FB699A4240F050813B681B
:102F40005B68974A93425ED0954A934275D8954AFA
:102F5000934258D0934A93426FD8934A934252D0A7
:102F6000914A934269D8914A93424CD08F4A9342F6
:102F700063D88F4A934246D08D4A93425DD8122B34
:102F80002AD8122B59D801A252F823F00730000892
:102F9000E12F0008F32F0008353000083B3000080F
:102FA0003B3000083B3000083B3000083B30000855
:102FB0003B3000083B3000083B3000083B30000845
:102FC0003B3000083B3000083B3000083B30000835
:102FD000E92F0008FD2F0008764A934213D02CE019
:102FE0003B68DB683B6229E03B68DB6804333B629B
:102FF00024E03B68DB6808333B621FE03B68DB682A
:103000000C333B621AE03B689B68002B02D104231F
:103010003B6213E03B689B68012B05D108233B62B0
:103020007B68FA691A6109E008233B627B68FA69E8
:103030005A6103E000233B6200E000BFBB69FF2B45
:1030400001D87B6801E07B6804337B61BB69FF2B9F
:1030500002D87B6A9B0002E07B6A083B9B003B61D5
:103060007B691A680F213B6901FA03F3DB431A40BD
:10307000396A3B6901FA03F31A437B691A603B68BA
:103080005B6803F08053002B00F0A9804A4B9B69DA
:10309000494A43F001039361474B9B6903F00103E5
:1030A000BB60BB68454A7B6A9B08023352F82330F9
:1030B000FB607B6A03F003039B000F2202FA03F319
:1030C000DB43FA681340FB607B683D4A93420DD0B6
:1030D0007B683C4A934207D07B683B4A934201D1CC
:1030E000022304E0032302E0012300E000237A6AC4
:1030F00002F0030292009340FA681343FB602F49E9
:103100007B6A9B080233FA6841F823203B685B68BE
:1031100003F48033002B06D02C4B1A682B49BB6973
:1031200013430B6006E0294B1A68BB69DB43274950
:1031300013400B603B685B6803F40033002B06D040
:10314000224B5A682149BB6913434B6006E01F4B71
:103150005A68BB69DB431D4913404B603B685B68A1
:1031600003F48013002B06D0184B9A681749BB69EB
:1031700013438B6006E0154B9A68BB69DB43134928
:1031800013408B603B685B6803F40013002B1FD077
:103190000E4BDA680D49BB691343CB601FE000BFDB
:1031A0000000321000003110000022100000211039
:1031B0000000121000001110001002400000014039
:1031C00000080140000C01400010014000040140D3
:1031D0000B4BDA68BB69DB4309491340CB607B6A60
:1031E00001337B623B681A687B6A22FA03F3002B87
:1031F0007FF496AE00BF00BF2C37BD4680BC704741
:103200000004014080B483B000AF78600B467B803F
:1032100013467B707B78002B03D07A887B681A6119
:1032200003E07B881A047B681A6100BF0C37BD4637
:1032300080BC704780B586B000AF78607B68002B9B
:1032400001D1012372E27B681B6803F00103002BAC
:1032500000F08780924B5B6803F00C03042B0CD0CA
:103260008F4B5B6803F00C03082B12D18C4B5B680F
:1032700003F48033B3F5803F0BD1894B1B6803F413
:103280000033002B6CD07B685B68002B68D1012376
:103290004CE27B685B68B3F5803F06D1804B1B68CE
:1032A0007F4A43F4803313602EE07B685B68002B19
:1032B0000CD17B4B1B687A4A23F480331360784B24
:1032C0001B68774A23F4802313601DE07B685B68EA
:1032D000B3F5A02F0CD1724B1B68714A43F48023C5
:1032E00013606F4B1B686E4A43F4803313600BE02E
:1032F0006B4B1B686A4A23F480331360684B1B686E
:10330000674A23F4802313607B685B68002B13D02B
:10331000FEF7D2FD386108E0FEF7CEFD02463B69BC
:10332000D31A642B01D9032300E25D4B1B6803F41D
:103330000033002BF0D014E0FEF7BEFD386108E04A
:10334000FEF7BAFD02463B69D31A642B01D9032369
:10335000ECE1534B1B6803F40033002BF0D100E089
:1033600000BF7B681B6803F00203002B63D04C4B4B
:103370005B6803F00C03002B0BD0494B5B6803F038
:103380000C03082B1CD1464B5B6803F48033002BE5
:1033900016D1434B1B6803F00203002B05D07B685A
:1033A0001B69012B01D00123C0E13D4B1B6823F0B9
:1033B000F8027B685B69DB00394913430B603AE034
:1033C0007B681B69002B20D0364B01221A60FEF768
:1033D00073FD386108E0FEF76FFD02463B69D31AC2
:1033E000022B01D90323A1E12D4B1B6803F002033B
:1033F000002BF0D02A4B1B6823F0F8027B685B6936
:10340000DB00274913430B6015E0264B00221A60AE
:10341000FEF752FD386108E0FEF74EFD02463B69BB
:10342000D31A022B01D9032380E11D4B1B6803F043
:103430000203002BF0D17B681B6803F00803002B0C
:103440003AD07B689B69002B19D0174B01221A6078
:10345000FEF732FD386108E0FEF72EFD02463B69BB
:10346000D31A022B01D9032360E10D4B5B6A03F0F1
:103470000203002BF0D0012000F0D8FA1CE00A4B28
:1034800000221A60FEF718FD38610FE0FEF714FD08
:1034900002463B69D31A022B08D9032346E100BF39
:1034A000001002400000424280044242924B5B6A9C
:1034B00003F00203002BE9D17B681B6803F00403CF
:1034C000002B00F0A6800023FB758B4BDB6903F01B
:1034D0008053002B0DD1884BDB69874A43F0805322
:1034E000D361854BDB6903F08053BB60BB6801236C
:1034F000FB75824B1B6803F48073002B18D17F4B44
:103500001B687E4A43F480731360FEF7D5FC386174
:1035100008E0FEF7D1FC02463B69D31A642B01D9BF
:10352000032303E1754B1B6803F48073002BF0D079
:103530007B68DB68012B06D16F4B1B6A6E4A43F038
:10354000010313622DE07B68DB68002B0CD16A4B12
:103550001B6A694A23F001031362674B1B6A664AC0
:1035600023F0040313621CE07B68DB68052B0CD19D
:10357000614B1B6A604A43F0040313625E4B1B6A93
:103580005D4A43F0010313620BE05B4B1B6A5A4A2E
:1035900023F001031362584B1B6A574A23F00403BC
:1035A00013627B68DB68002B15D0FEF785FC386161
:1035B0000AE0FEF781FC02463B69D31A41F28832E9
:1035C000934201D90323B1E04B4B1B6A03F0020382
:1035D000002BEED014E0FEF76FFC38610AE0FEF736
:1035E0006BFC02463B69D31A41F28832934201D9FF
:1035F00003239BE0404B1B6A03F00203002BEED138
:10360000FB7D012B05D13C4BDB693B4A23F080530A
:10361000D3617B68DB69002B00F08780364B5B68E9
:1036200003F00C03082B61D07B68DB69022B46D1C9
:10363000334B00221A60FEF73FFC386108E0FEF7CA
:103640003BFC02463B69D31A022B01D903236DE0F0
:10365000294B1B6803F00073002BF0D17B681B6AB9
:10366000B3F5803F08D1244B5B6823F400327B68BC
:103670009B68214913434B601F4B5B6823F4741212
:103680007B68196A7B685B6A0B431B4913434B6079
:103690001B4B01221A60FEF70FFC386108E0FEF7B1
:1036A0000BFC02463B69D31A022B01D903233DE0F0
:1036B000114B1B6803F00073002BF0D035E0104B6A
:1036C00000221A60FEF7F8FB386108E0FEF7F4FB11
:1036D00002463B69D31A022B01D9032326E0064B8D
:1036E0001B6803F00073002BF0D11EE07B68DB69E0
:1036F000012B07D1012319E00010024000700040A7
:10370000600042420B4B5B68FB60FB6803F4803255
:103710007B681B6A9A4206D1FB6803F470127B68CF
:103720005B6A9A4201D0012300E000231846183753
:10373000BD4680BD0010024080B584B000AF786007
:1037400039607B68002B01D10123D0E06A4B1B68F4
:1037500003F007033A689A4210D9674B1B6823F0BD
:10376000070265493B6813430B60634B1B6803F01A
:1037700007033A689A4201D00123B8E07B681B68CE
:1037800003F00203002B20D07B681B6803F00403C6
:10379000002B05D0594B5B68584A43F4E0635360F3
:1037A0007B681B6803F00803002B05D0534B5B6854
:1037B000524A43F460535360504B5B6823F0F0026D
:1037C0007B689B684D4913434B607B681B6803F023
:1037D0000103002B40D07B685B68012B07D1474B6E
:1037E0001B6803F40033002B15D101237FE07B68B5
:1037F0005B68022B07D1414B1B6803F00073002B61
:1038000009D1012373E03D4B1B6803F00203002B39
:1038100001D101236BE0394B5B6823F003027B6825
:103820005B68364913434B60FEF746FBF8600AE0DD
:10383000FEF742FB0246FB68D31A41F288329342FC
:1038400001D9032353E02D4B5B6803F00C027B6826
:103850005B689B009A42EBD1274B1B6803F0070380
:103860003A689A4210D2244B1B6823F0070222497F
:103870003B6813430B60204B1B6803F007033A6857
:103880009A4201D0012332E07B681B6803F00403F5
:10389000002B08D0194B5B6823F4E0627B68DB687F
:1038A000164913434B607B681B6803F00803002B29
:1038B00009D0124B5B6823F460527B681B69DB0004
:1038C0000E4913434B6000F021F802460B4B5B6836
:1038D0001B0903F00F030A49CB5C22FA03F3094AE0
:1038E0001360094B1B681846FEF7A4FA002318461C
:1038F0001037BD4680BD00BF0020024000100240CE
:10390000E4780008040000200800002090B48AB089
:1039100000AF294B3C1D0FCB84E80F0040F2012380
:103920003B800023FB610023BB6100237B620023FB
:103930007B6100233B62214B5B68FB61FB6903F009
:103940000C03042B02D0082B03D02BE01C4B3B6252
:103950002BE0FB699B0C03F00F0328333B4413F867
:10396000243C7B61FB6903F48033002B12D0134BA2
:103970005B685B0C03F0010328333B4413F8283CDD
:10398000BB617B690E4A03FB02F2BB69B2FBF3F336
:103990007B6204E07B690B4A02FB03F37B627B6A78
:1039A0003B6202E0064B3B6200BF3B6A1846283789
:1039B000BD4690BC704700BFC478000800100240AC
:1039C00000127A0000093D0080B400AF024B1B6872
:1039D0001846BD4680BC70470400002080B500AF8B
:1039E000FFF7F2FF0246054B5B681B0A03F0070373
:1039F0000349CB5C22FA03F3184680BD0010024055
:103A0000F478000880B500AFFFF7DEFF0246054BF3
:103A10005B68DB0A03F007030349CB5C22FA03F37C
:103A2000184680BD00100240F478000880B485B0CC
:103A300000AF78600A4B1B680A4AA2FB03235B0AAB
:103A40007A6802FB03F3FB6000BFFB685A1EFA6052
:103A5000002BF9D100BF00BF1437BD4680BC7047B2
:103A600004000020D34D621080B586B000AF7860AE
:103A700000233B610023FB607B681B6803F00103AC
:103A8000002B7DD00023FB754F4BDB6903F0805387
:103A9000002B0DD14C4BDB694B4A43F08053D36173
:103AA000494BDB6903F08053BB60BB680123FB75A6
:103AB000464B1B6803F48073002B18D1434B1B68E3
:103AC000424A43F480731360FEF7F6F9386108E068
:103AD000FEF7F2F902463B69D31A642B01D903239E
:103AE0006DE03A4B1B6803F48073002BF0D0364B2B
:103AF0001B6A03F44073FB60FB68002B2ED07B68CD
:103B00005B6803F44073FA689A4227D02E4B1B6A15
:103B100023F44073FB602E4B01221A602C4B0022D1
:103B20001A60294AFB681362FB6803F00103002B4B
:103B300014D0FEF7C1F938610AE0FEF7BDF902467C
:103B40003B69D31A41F28832934201D9032336E00C
:103B50001D4B1B6A03F00203002BEED01A4B1B6AAD
:103B600023F440727B685B68174913430B62FB7D4B
:103B7000012B05D1144BDB69134A23F08053D36129
:103B80007B681B6803F00203002B08D00E4B5B68B8
:103B900023F440427B689B680B4913434B607B686E
:103BA0001B6803F01003002B08D0074B5B6823F45D
:103BB00080027B68DB68044913434B60002318468E
:103BC0001837BD4680BD00BF0010024000700040A5
:103BD0004004424290B58DB000AF7860584B07F179
:103BE0000C040FCB84E80F0040F201233B8100233B
:103BF0007B620023FB6200233B620023FB61002306
:103C0000BB627B68102B0AD07B68102B00F28E8081
:103C10007B68012B49D07B68022B79D086E0494B29
:103C20005B68FB61474B1B6803F08073002B7FD000
:103C3000FB699B0C03F00F0330333B4413F8243C27
:103C40003B62FB6903F48033002B17D03D4B5B686C
:103C50005B0C03F0010330333B4413F8283C7B62D8
:103C6000FB6903F48033002B0DD0374A7B6AB2FB2B
:103C7000F3F23B6A02FB03F3FB6204E03B6A334A64
:103C800002FB03F3FB622F4B5B6803F48003B3F585
:103C9000800F02D1FB6ABB624AE0FB6A5B002C4AE0
:103CA000A2FB03235B08BB6242E0264B1B6AFB615D
:103CB000FB6903F44073B3F5807F08D1FB6903F01F
:103CC0000203002B03D04FF40043BB621FE0FB69EB
:103CD00003F44073B3F5007F09D11A4B5B6A03F01C
:103CE0000203002B03D049F64043BB620FE0FB699F
:103CF00003F44073B3F5407F1CD1124B1B6803F4EF
:103D00000033002B16D04FF22443BB6212E011E0C7
:103D1000FFF778FE02460B4B5B689B0B03F0030337
:103D200001335B00B2FBF3F3BB6204E000BF02E0CF
:103D300000BF00E000BFBB6A18463437BD4690BDE7
:103D4000D47800080010024000127A0000093D00FB
:103D5000ABAAAAAA80B582B000AF78607B68002BBE
:103D600001D101233FE07B6893F83D30DBB2002BAB
:103D700006D17B68002283F83C207868FDF78AFE34
:103D80007B68242283F83D207B681B68DA687B68A7
:103D90001B6822F40052DA60786800F09BFD7B68B3
:103DA0001B681A697B681B6822F490421A617B6861
:103DB0001B685A697B681B6822F02A025A617B687B
:103DC0001B68DA687B681B6842F40052DA607B6823
:103DD00000221A647B68202283F83D207B68202221
:103DE00083F83E20002318460837BD4680BD80B5C5
:103DF0008AB002AFF860B9603B601346FB800023D5
:103E00007B61FB6893F83D30DBB2202B7CD1BB6833
:103E1000002B02D0FB88002B01D1012375E0FB6849
:103E200093F83C30012B01D102236EE0FB680122A4
:103E300083F83C20FB6800221A64FB68212283F887
:103E40003D20FEF739F87861FB68FA889A84FB68B0
:103E5000FA88DA84FB689B68B3F5805F08D1FB6859
:103E60001B69002B04D10023FB61BB68BB6103E02D
:103E7000BB68FB610023BB61FB68002283F83C2028
:103E80002AE03B6800937B6900228021F86800F0FB
:103E90000DFB0346002B01D0032336E0FB69002B0A
:103EA0000BD1BB691B881A46FB681B68C2F308026A
:103EB0005A60BB690233BB6107E0FB691A78FB6893
:103EC0001B685A60FB690133FB61FB68DB8C9BB2AA
:103ED000013B9AB2FB68DA84FB68DB8C9BB2002B57
:103EE000CFD13B6800937B6900224021F86800F045
:103EF000DDFA0346002B01D0032306E0FB682022F5
:103F000083F83D20002300E0022318462037BD46F9
:103F100080BD80B586B000AFF860B9601346FB8005
:103F2000FB6893F83E30DBB2202B3CD1BB68002B02
:103F300002D0FB88002B01D1012335E0FB6893F808
:103F40003C30012B01D102232EE0FB68012283F8D3
:103F50003C20FB6801221A63FB881A46B968F8689E
:103F600000F0EEFA0346FB75FB7D002B19D1FB68D0
:103F70001B6B012B13D100233B61FB681B681B6883
:103F80003B61FB681B685B683B613B69FB681B68C6
:103F9000DA68FB681B6842F01002DA6001E0012376
:103FA000FB75FB7D00E0022318461837BD4680BD37
:103FB00080B58AB000AF78607B681B681B687B6245
:103FC0007B681B68DB683B627B681B685B69FB6125
:103FD0000023BB6100237B617B6A03F00F03BB619D
:103FE000BB69002B0DD17B6A03F02003002B08D0A6
:103FF0003B6A03F02003002B03D0786800F0C0FB7D
:104000007BE1BB69002B00F0B180FB6903F0010389
:10401000002B05D13B6A03F49073002B00F0A680BF
:104020007B6A03F00103002B0AD03B6A03F4807320
:10403000002B05D07B681B6C43F001027B681A647F
:104040007B6A03F00403002B0AD0FB6903F0010331
:10405000002B05D07B681B6C43F002027B681A645E
:104060007B6A03F00203002B0AD0FB6903F0010313
:10407000002B05D07B681B6C43F004027B681A643C
:104080007B6A03F00803002B0FD03B6A03F0200388
:10409000002B04D1FB6903F00103002B05D07B68E2
:1040A0001B6C43F008027B681A647B681B6C002B56
:1040B00000F01E817B6A03F02003002B07D03B6ACF
:1040C00003F02003002B02D0786800F059FB7B68D6
:1040D0001B685B6903F04003002B14BF012300231E
:1040E000DBB27B617B681B6C03F00803002B02D101
:1040F0007B69002B31D0786800F09BFA7B681B68E5
:104100005B6903F04003002B23D07B681B685A696E
:104110007B681B6822F040025A617B689B6B002B16
:1041200013D07B689B6B764A5A637B689B6B1846FF
:10413000FEF742FD0346002B16D07B689B6B5B6B42
:104140007A68926B104698470EE0786800F0F5F8B0
:104150000AE0786800F0F1F806E0786800F0EDF821
:104160007B6800221A64C3E000BFC1E07B681B6B60
:10417000012B40F0A1807B6A03F01003002B00F0BC
:104180009B803B6A03F01003002B00F09580002316
:10419000FB607B681B681B68FB607B681B685B6857
:1041A000FB60FB687B681B685B6903F04003002BC6
:1041B0004ED07B689B6B1B685B683B823B8A002B05
:1041C00000F098807B689B8D3A8A9A4280F09280BA
:1041D0007B683A8ADA857B689B6B9B69202B2BD0A6
:1041E0007B681B68DA687B681B6822F48072DA607F
:1041F0007B681B685A697B681B6822F001025A6160
:104200007B681B685A697B681B6822F040025A6110
:104210007B68202283F83E207B6800221A637B683B
:104220001B68DA687B681B6822F01002DA607B6822
:104230009B6B1846FEF785FC7B689A8D7B68DB8D4F
:104240009BB2D31A9BB219467868FDF799F951E0F1
:104250007B689A8D7B68DB8D9BB2D31A7B827B68EF
:10426000DB8D9BB2002B47D07B8A002B44D07B6830
:104270001B68DA687B681B6822F49072DA607B68DE
:104280001B685A697B681B6822F001025A617B68CF
:10429000202283F83E207B6800221A637B681B681B
:1042A000DA687B681B6822F01002DA607B8A1946A4
:1042B0007868FDF765F91FE07B6A03F08003002B47
:1042C00008D03B6A03F08003002B03D0786800F02D
:1042D000F0F912E07B6A03F04003002B0DD03B6A3B
:1042E00003F04003002B08D0786800F031FA04E0B6
:1042F00000BF02E000BF00E000BF2837BD4680BD20
:104300008B46000880B483B000AF786000BF0C37E4
:10431000BD4680BC704780B483B000AF786000BFFA
:104320000C37BD4680BC704780B483B000AF786066
:1043300000BF0C37BD4680BC704780B483B000AF6F
:10434000786000BF0C37BD4680BC704780B584B034
:1043500000AF78607B685B6AFB607B681B681B68EA
:1043600003F02003002B2AD1FB680022DA85FB68CA
:104370001B68DA68FB681B6822F48072DA60FB68ED
:104380001B685A69FB681B6822F001025A61FB68CE
:104390001B685A69FB681B6822F040025A61FB687F
:1043A000202283F83E20FB681B6B012B07D1FB68A2
:1043B0001B68DA68FB681B6822F01002DA60FB6891
:1043C0001B6B012B06D1FB689B8D1946F868FDF726
:1043D000D7F802E0F868FFF79EFF00BF1037BD4630
:1043E00080BD80B584B000AF78607B685B6AFB609D
:1043F000FB681B6B012B08D1FB689B8D5B089BB294
:104400001946F868FDF7BCF802E0F868FFF78CFF82
:1044100000BF1037BD4680BD80B584B000AF786066
:104420000023FB607B685B6ABB60BB681B685B69E1
:1044300003F08003002B14BF01230023DBB2FB60D9
:10444000BB6893F83D30DBB2212B08D1FB68002B11
:1044500005D0BB680022DA84B86800F0D5F8BB68E4
:104460001B685B6903F04003002B14BF012300238A
:10447000DBB2FB60BB6893F83E30DBB2222B08D185
:10448000FB68002B05D0BB680022DA85B86800F015
:10449000D0F8BB681B6C43F01002BB681A64B868A4
:1044A000FFF74BFF00BF1037BD4680BD80B584B01D
:1044B00000AFF860B9603B601346FB712CE0BB694C
:1044C000B3F1FF3F28D0BB69002B07D0FDF7F4FC08
:1044D00002463B68D31ABA699A421DD2FB681B6830
:1044E000DA68FB681B6822F4D072DA60FB681B682C
:1044F0005A69FB681B6822F001025A61FB6820229E
:1045000083F83D20FB68202283F83E20FB680022D0
:1045100083F83C2003230FE0FB681B681A68BB6824
:104520001340BA689A420CBF01230023DBB21A463B
:10453000FB799A42C3D0002318461037BD4680BD90
:1045400080B586B000AFF860B9601346FB80BA68EA
:10455000FB689A62FB68FA889A85FB6800221A64F5
:10456000FB68222283F83E20FB689B6B234A9A62F9
:10457000FB689B6B224ADA62FB689B6B214A1A63D9
:10458000FB689B6B00225A6307F108037B61FB68A1
:10459000986BFB681B68043319467B691A68FB88B3
:1045A000FEF770FA00233B61FB681B681B683B61E8
:1045B000FB681B685B683B613B69FB68002283F812
:1045C0003C20FB681B68DA68FB681B6842F4807259
:1045D000DA60FB681B685A69FB681B6842F00102DD
:1045E0005A61FB681B685A69FB681B6842F040020D
:1045F0005A61002318461837BD4680BD4D43000858
:10460000E34300081944000880B483B000AF786029
:104610007B681B68DA687B681B6822F0C002DA607E
:104620007B68202283F83D2000BF0C37BD4680BC4C
:10463000704780B483B000AF78607B681B68DA682D
:104640007B681B6822F49072DA607B681B685A6989
:104650007B681B6822F001025A617B681B6B012B8F
:1046600007D17B681B68DA687B681B6822F0100240
:10467000DA607B68202283F83E207B6800221A6380
:1046800000BF0C37BD4680BC704780B584B000AF1A
:1046900078607B685B6AFB60FB680022DA85FB68F8
:1046A0000022DA84F868FFF748FE00BF1037BD46E5
:1046B00080BD80B485B000AF78607B6893F83D30F2
:1046C000DBB2212B3ED17B689B68B3F5805F14D1B0
:1046D0007B681B69002B10D17B681B6AFB60FB6841
:1046E0001B881A467B681B68C2F308025A607B6805
:1046F0001B6A9A1C7B681A6208E07B681B6A591C5B
:104700007A6811621A787B681B685A607B68DB8C58
:104710009BB2013B9BB27A681946D184002B0FD122
:104720007B681B68DA687B681B6822F08002DA60AD
:104730007B681B68DA687B681B6842F04002DA60BD
:10474000002300E0022318461437BD4680BC7047A2
:1047500080B582B000AF78607B681B68DA687B68E0
:104760001B6822F04002DA607B68202283F83D203B
:104770007868FFF7C7FD002318460837BD4680BD9F
:1047800080B586B000AF78607B6893F83E30DBB2CE
:10479000222B40F099807B689B68B3F5805F17D12E
:1047A0007B681B69002B13D100237B617B689B6AAC
:1047B0003B617B681B685B689BB2C3F308039AB2DA
:1047C0003B691A807B689B6A9A1C7B689A6226E028
:1047D0007B689B6A7B6100233B617B689B68B3F5C8
:1047E000805F07D07B689B68002B0AD17B681B69C0
:1047F000002B06D17B681B685B68DAB27B691A7094
:1048000008E07B681B685B68DBB203F07F03DAB209
:104810007B691A707B689B6A5A1C7B689A627B680A
:10482000DB8D9BB2013B9BB27A681946D185002B88
:1048300048D17B681B68DA687B681B6822F020021D
:10484000DA607B681B68DA687B681B6822F4807218
:10485000DA607B681B685A697B681B6822F001027A
:104860005A617B68202283F83E207B681B6B012BFA
:1048700023D17B6800221A637B681B68DA687B6837
:104880001B6822F01002DA607B681B681B6803F06B
:104890001003102B0AD10023FB607B681B681B6888
:1048A000FB607B681B685B68FB60FB687B689B8DBB
:1048B00019467868FCF764FE02E07868FFF72BFD84
:1048C000002302E0002300E0022318461837BD460B
:1048D00080BD000080B584B000AF78607B681B6845
:1048E0001B6923F440517B68DA687B681B680A43C4
:1048F0001A617B689A687B681B691A437B685B69ED
:104900001343BB607B681B68DB6823F4B05323F060
:104910000C037A681268B9680B43D3607B681B6824
:104920005B6923F440717B689A697B681B680A4362
:104930005A617B681B682C4A934203D1FFF762F8E7
:10494000F86002E0FFF74AF8F860FA6813469B0047
:1049500013449A001A447B685B689B00B2FBF3F334
:10496000224AA2FB03235B091901FA6813469B0044
:1049700013449A001A447B685B689B00B2FBF3F215
:104980001A4BA3FB02035B09642000FB03F3D31A59
:104990001B013233154AA2FB03235B0903F0F0032A
:1049A0001944FA6813469B0013449A001A447B6822
:1049B0005B689B00B2FBF3F20C4BA3FB02035B09A9
:1049C000642000FB03F3D31A1B013233074AA2FB16
:1049D00003235B0903F00F027B681B680A449A609B
:1049E00000BF1037BD4680BD003801401F85EB5128
:1049F000014B1868704700BF1000002070B50026FA
:104A00000C4D0D4C641BA410A64209D102F034FFDA
:104A100000260A4D0A4C641BA410A64205D170BDA5
:104A200055F8043B98470136EEE755F8043B9847A4
:104A30000136F2E7DC7C0008DC7C0008DC7C000846
:104A4000E07C000803460244934200D1704703F81B
:104A5000011BF9E7002B2DE9F0471F46BBBF03F10F
:104A600000431F4600232D2388B01446129A109D40
:104A70001370149BDDF84CA023F02008B8F1460F0A
:104A800005D0B8F1450F00D10135022300E0032322
:104A900007AA049206AACDE902A2CDE90035224672
:104AA0003B4600F0DDFCB8F1470F064602D1119BF2
:104AB000DB0722D5B8F1460F06EB050910D1337894
:104AC000302B0AD10022002320463946FBF776FF1F
:104AD00018B9C5F10105CAF80050DAF80030994458
:104AE0000022002320463946FBF768FF08B1CDF8C5
:104AF0001C903022079B4B4507D33046079B159AE5
:104B00009B1B136008B0BDE8F087591C07911A7011
:104B1000F0E70346F7B5002903F8022BB6BF2D22B4
:104B20002B224942092942702BDD0DF10704A446CE
:104B30000A2791FBF7F60A46A64607FB1615632AD5
:104B400005F13005314604F1FF340EF8015CF0DC6C
:104B50003031AEF1020504F8011C2946441C6145C0
:104B60000AD30DF10902A2EB0E02654588BF0022AF
:104B70001344181A03B0F0BD11F8012B04F8012FEB
:104B8000EDE7302330318370C170031DF1E7000081
:104B90002DE9F04F91B00C46DDF8688016461F46AF
:104BA000054601F041FB036818460993FBF7DAFA62
:104BB00000230E93D8F800300A90073323F0070340
:104BC00003F1080294F81890D4F800B0C8F8002057
:104BD000D3E90023C4E91223D4E9128A2AF000435E
:104BE0000B934FF0FF3240469C4B0B99FBF718FF9D
:104BF00070BB4FF0FF324046984B0B99FBF7F2FE2B
:104C000030BB0022002340465146FBF7E1FE10B1C5
:104C10002D2384F84330924B9248B9F1470F94BF4B
:104C20009846804603234FF0000A23612BF00403CB
:104C3000236033462146284600970FAA00F0D4F996
:104C4000013040F090804FF0FF3011B0BDE8F08FA0
:104C50004246534640465146FBF7E2FE48B1BAF1A0
:104C6000000FB8BF2D238048B8BF84F843307F4B76
:104C7000D3E7636809F0DF015A1C42D10623636061
:104C8000002206920EAACDE904920DAA4BF480638D
:104C900003920DF13302CDE901322360636842468D
:104CA0000093284653460B91FFF7D4FE0B9980469C
:104CB00047290D9908D1C81C02DB6368994240DD81
:104CC000A9F102095FFA89F9B9F1650F1FD84A46BF
:104CD000013904F150000D91FFF71BFF0E9A824637
:104CE0001318012A236102DC2268D20701D501339F
:104CF00023619DF83330002B9BD02D2384F8433063
:104D000097E74729BCD1002BBAD10123B7E7B9F106
:104D1000660F18D1002963680BDD216113B9226881
:104D2000D00702D501330B4423614FF0000AA1657F
:104D3000DFE713B92268D20701D50233F4E7012374
:104D4000F2E74FF067090E9B994205DB236821616A
:104D5000D807EAD54B1CE7E70029CCBF0122C1F1F7
:104D600002021344E0E723685A0507D42369424648
:104D700031462846B84701302BD164E7B9F1650FB9
:104D800040F2DD80D4E9120100220023FBF716FE79
:104D9000002833D0012331462846354AB847013030
:104DA0003FF451AFDDE90D239A4202DB2368D807B7
:104DB0000FD5DDE9092331462846B84701303FF4D5
:104DC00042AF4FF0000804F11A090E9B013B434526
:104DD00009DC23689B0700F10281E0680F9B984281
:104DE000B8BF184631E701234A4631462846B8473E
:104DF00001303FF428AF08F10108E6E70D9B002BD6
:104E000038DC012331462846194AB84701303FF4BF
:104E10001AAFDDE90D23134302D12368D907D8D592
:104E2000DDE9092331462846B84701303FF40BAF8E
:104E30004FF0000904F11A0A0D9B5B424B4501DC5F
:104E40000E9B94E70123524631462846B84701306D
:104E50003FF4F9AE09F10109EEE700BFFFFFEF7F74
:104E600000790008047900080C7900080879000826
:104E7000107900080E9AA36D9A42A8BF1A46002A1C
:104E8000914637DC4FF0000B29EAE97904F11A0268
:104E9000D4F858A0AAEB09035B4533DCDDE90D2308
:104EA0009A423BDB2368DA0738D40E9B0D99A3EBBB
:104EB0000A02A3EB01099145A8BF9146B9F1000F81
:104EC00034DC4FF0000829EAE97904F11A0ADDE937
:104ED0000D239B1AA3EB090343457FF77AAF012308
:104EE000524631462846B84701303FF4ACAE08F18F
:104EF0000108ECE71346314642462846B8470130E0
:104F0000C0D1A0E60123314628460B92B8470130B4
:104F10003FF499AE0B9A0BF1010BB9E73146DDE98D
:104F200009232846B8470130BFD18CE64B463146AD
:104F3000284608EB0A02B8470130C2D183E60E9A30
:104F4000012A01DCDB0737D50123424631462846DA
:104F5000B84701303FF477AEDDE9092331462846F2
:104F6000B84701303FF46FAED4E9120100220023AC
:104F7000FBF724FDD8B90E9B08F10102013B314635
:104F80002846B84701300ED15DE601234A46314636
:104F90002846B84701303FF456AE08F101080E9B91
:104FA000013B4345F1DC534604F15002E0E64FF08B
:104FB000000804F11A09F2E701234246DFE7012362
:104FC0004A4631462846B84701303FF43CAE08F126
:104FD0000108E3680F995B1A4345F0DCFDE64FF0EA
:104FE000000804F11909F4E72DE9F047164699463F
:104FF0008A680B6907469342B8BF1346336091F83D
:1050000043200C46DDF820800AB101333360236869
:10501000990642BF336802333360256815F00605F0
:1050200006D104F1190AE36832689B1AAB4228DC06
:1050300094F84320131E226818BF012392062DD432
:105040004946384604F14302C047013020D0236866
:10505000E56803F00603042B18BF002532684FF003
:105060000006A36808BFAD1A226908BF25EAE575E6
:105070009342C4BF9B1AED181A34B5421AD10020CE
:1050800008E00123524649463846C047013003D163
:105090004FF0FF30BDE8F0870135C4E73020E1185C
:1050A00081F843005A1C94F845102244023382F8D8
:1050B0004310C5E70123224649463846C047013020
:1050C000E6D00136D9E700002DE9FF470F7E914673
:1050D000782F80460C469A460C9D01F1430207D872
:1050E000622F0AD8002F00F0D980582F00F0A4803A
:1050F00004F1420584F842703AE0A7F16303152BEE
:10510000F6D801A151F823F061510008755100084B
:10511000F1500008F1500008F1500008F15000086B
:1051200075510008F1500008F1500008F1500008D6
:10513000F150000883520008A5510008655200088C
:10514000F1500008F1500008A5520008F150000885
:10515000A5510008F1500008F15000086D520008F8
:105160002B681A1D1B682A6004F1420584F842303E
:105170000123A4E020682968060601F104030AD58A
:105180000E682B60002E03DA2D23764284F843301C
:105190000A235E4819E00E6810F0400F2B6018BF1C
:1051A00036B2EFE72B682068191D2960010601D58A
:1051B0001E6802E04606FBD51E886F2F0CBF082331
:1051C0000A235248002184F843106568002DA8BFC7
:1051D0002168A560A4BF21F0040121600EB9002D53
:1051E0004DD01546B6FBF3F103FB1167C75D05F81B
:1051F000017D3746BB420E46F4D9082B0BD12368FC
:10520000DE0708D5236961689942DEBF302305F8BF
:10521000013C05F1FF35521B22614B4621464046B9
:10522000CDF800A003AAFFF7DFFE01304CD14FF00C
:10523000FF3004B0BDE8F087344881F84570296834
:10524000236851F8046B29601D0614D5DF0744BF9D
:1052500043F0200323601EB9236823F0200323605A
:105260001023AFE7236843F0200323607823284806
:1052700084F84530E3E7590648BFB6B2E6E715467D
:10528000BBE72B682668181D6169286035061B6816
:1052900001D5196002E07006FBD519800023154680
:1052A0002361BAE72B6800211A1D2A601D68626815
:1052B000284600F0C9FF08B1401B606063682361A5
:1052C000002384F84330A8E72A464946404623692C
:1052D000D0470130ABD023689B0713D4E068039B11
:1052E0009842B8BF1846A4E70123324649464046D3
:1052F000D04701309BD00135E36803995B1AAB427C
:10530000F2DCEBE7002504F11906F5E71279000855
:10531000237900080FB40A4B13B51C6824B1A369A4
:1053200013B9204600F0E2FE05AB2046049AA168BE
:10533000019301F03FFC02B0BDE8104004B070479B
:10534000100000202DE9F74F03690C690746A342BE
:10535000C0F28280013C00F1140501F1140805EB54
:105360008403019358F8243055F8242001339A42DD
:10537000B2FBF3F64FEA840B08EB840931D34FF00C
:10538000000E4046AC46F24650F8042B93B206FBA2
:1053900003E3120C4FEA134E9BB206FB02E2AAEBA8
:1053A0000303DCF800A04FEA124E1FFA8AFA5344B6
:1053B000DCF800A092B2C2EB1A4202EB23429BB28D
:1053C00043EA024381454FEA224A4CF8043BDBD2D0
:1053D00055F80B302BB9019B043B9D421A462FD345
:1053E0003C61384601F0CAF9002825DB28464FF019
:1053F000000C013658F8041BD0F800E08BB2ACEB7F
:1054000003031FFA8EF213440A0CC2EB1E4202EB96
:1054100023429BB243EA0243C1454FEA224C40F883
:10542000043BE7D255F8242005EB840322B9043B62
:105430009D421A460AD33C61304603B0BDE8F08F66
:105440001268043B002ACBD1013CC6E71268043B3A
:10545000002AF0D1013CEBE70020EEE7000000005D
:105460002DE9F04F16461F46446A99B00546CDE92E
:105470000467DDF8948074B9102000F0DDFE024668
:10548000686220B9EA21A84BA84801F0E9FDC0E90B
:1054900001440460C4606B6A196851B15A68012301
:1054A00093404A608B60284600F02AFF00226B6A16
:1054B0001A603B1EAFBF0023012223F00043059377
:1054C000A8BFC8F80030DDF81490994BB8BFC8F8F1
:1054D000002033EA090319D142F20F73249A1360B2
:1054E000C9F31303334300F07F85269B53B9914BD7
:1054F00022E0914B03930833269A1360039819B066
:10550000BDE8F08F8B4B03930333F5E7DDE90434FB
:10551000CDE90C34DDE90C0100220023FBF74EFA43
:10552000804658B10123249A1360269B002B00F07B
:10553000588582481860431E0393DFE716AB01933A
:1055400017AB00932846DDE90C2301F0BFF9C9F33E
:105550000A548346002C7FD0DDE90C010D9BA4F298
:10556000FF34C3F3130343F07F5141F44011CDF8EE
:105570004C800022724BFAF701FE65A3D3E90023A9
:10558000FAF7B4FF64A3D3E90023FAF7F9FD06465E
:1055900020460F46FAF740FF61A3D3E90023FAF74C
:1055A000A5FF02460B4630463946FAF7E9FD0646A6
:1055B0000F46FBF74BFA002282460023304639465D
:1055C000FBF706FA48B15046FAF726FF32463B464B
:1055D000FBF7F4F908B90AF1FF3ABAF1160F58D8F7
:1055E000DDE90C01574B03EBCA03D3E90023FBF7BA
:1055F000EFF900284FD000230AF1FF3A0F93169BD2
:105600001C1B631E099349BFC4F1010300230693C9
:10561000002354BF06930993BAF1000F3DDB099BA9
:10562000CDF838A05344099300230A93229B092BF9
:1056300000F28C80052BC4BF043B2293229BC8BF81
:105640000024A3F10203D8BF0124032B00F28A80B7
:10565000DFE803F02D4F4D5BDDE916431C4404F2F7
:105660003243202BC3BFC3F1400304F2124009FAB6
:1056700003F3C3F12003C6BF26FA00F0184306FA6D
:1056800003F0FAF7B9FE0123A1F1F871013C13937D
:105690006FE70123B2E70F90B1E7069BA3EB0A0384
:1056A0000693CAF100030A9300230E93BEE700237A
:1056B0000B93239B002B58DC4FF001094B46CDF890
:1056C0002090CDF88C900022686A4260042202F19A
:1056D00014069E4241684ED9284600F0D1FD039041
:1056E00000284CD102464FF4D571174BCCE601236C
:1056F000DEE700230B93239B0AEB030909F1010367
:10570000012B0893B8BF0123DDE70123F2E700BFB7
:1057100061436F63A787D23FB3C8608B288AC63FB7
:10572000FB799F501344D33F417900085879000812
:105730000000F07F3D7900083479000811790008F5
:105740000000F83FA87A0008B3790008012400237C
:105750000B9422934FF0FF3900221223CDF82090B2
:105760002392B0E701230B93F4E7DDF88C904B46CE
:10577000CDF82090A7E7013141605200A7E76B6A9E
:10578000039A1A60089B0E2B00F2A880002C00F0F0
:10579000A580BAF1000F34DD9A4A0AF00F0302EB3C
:1057A000C3031AF4807FD3E90034CDE910344FEA03
:1057B0002A1416D0DDE90C01934B0327D3E9082303
:1057C000FAF7BEFFCDE9040104F00F048E4E54B980
:1057D000DDE91023DDE90401FAF7B2FFCDE90401A8
:1057E00029E00227F2E7E10708D5DDE91001D6E953
:1057F0000023FAF77BFECDE910010137641008366B
:10580000E5E700F0A580DDE90C01CAF100047D4B5D
:1058100004F00F0203EBC203D3E90023FAF766FE9C
:1058200002270023CDE90401774E2411002C40F01B
:105830008480002BD2D10F9B002B00F08B80DDE900
:105840000434CDE91034DDE9100100226F4BFBF781
:10585000BFF800287ED0089B002B7BD0B9F1000F49
:1058600038DDDDE910010022694BFAF73FFE4C46B6
:10587000CDE904010AF1FF3801373846FAF7CCFDCB
:10588000DDE90423FAF732FE0022624BFAF778FCD6
:10589000A1F15076CDE910011196002C5DD1DDE922
:1058A000040100225C4BFAF769FC02460B46CDE985
:1058B00004233346109AFBF7A9F8002840F09C8295
:1058C000DDE90401109A06F10043FBF781F8002896
:1058D00040F09082DDE90C34CDE90434179B002BB5
:1058E000C0F25281BAF10E0F00F34E81454B03EB2B
:1058F000CA03D3E90034CDE90634239B002B80F2A0
:10590000DB80089B002B00F3D78040F07282DDE93A
:1059100006010022404BFAF7E9FDDDE90423FBF71D
:105920006BF8089C2646002840F048823123039FEC
:105930000AF1010A07F8013B44E2E20705D5D6E97E
:105940000023FAF7D3FD01230137641008366DE711
:10595000022770E7D046089C8FE70399294B214422
:1059600012910B9903EBC403DDE9106753E902239D
:10597000002955D000202949FAF7E2FE3B4632467D
:10598000FAF7FCFBCDE91001039FDDE90401FBF709
:105990005DF80446FAF740FD02460B46DDE90401D6
:1059A000FAF7ECFB02460B463034CDE90423DDE97F
:1059B000102307F8014BFBF70BF8002874D1DDE941
:1059C000042300201149FAF7D9FBDDE91023FAF787
:1059D000FFFF002840F0B780129B9F423FF47AAF50
:1059E000DDE9100100220A4BFAF780FD0022CDE923
:1059F0001001DDE90401064BFAF778FDCDE9040159
:105A0000C3E700BFA87A0008807A00080000F03FD2
:105A10000000244000001C40000014400000E03F53
:105A200030463946FAF762FD129BCDE91001039C1E
:105A30001493DDE90401FBF709F81590FAF7ECFC83
:105A400002460B46DDE90401FAF798FB159B064672
:105A5000303304F8013B129B0F469C424FF000028A
:105A600024D1DDE91001B04BFAF78AFB02460B4660
:105A700030463946FAF7CAFF002863D1DDE9102322
:105A80000020A949FAF77AFB02460B463046394610
:105A9000FAF79EFF00283FF41DAF149F7B1E14935E
:105AA00017F8013C302BF8D0C2463BE09F4BFAF789
:105AB0001DFDCDE90401BCE7039FDDE90489DDE9B3
:105AC000062340464946FAF73BFEFAF7BFFF044675
:105AD000FAF7A2FCDDE90623FAF708FD02460B46B9
